{
  "address": "0x44f4358D1D399ecFc77F9CaF1dd4968862f795bd",
  "abi": [
    {
      "inputs": [],
      "stateMutability": "nonpayable",
      "type": "constructor"
    },
    {
      "inputs": [],
      "name": "EmptyArgs",
      "type": "error"
    },
    {
      "inputs": [],
      "name": "EmptySource",
      "type": "error"
    },
    {
      "inputs": [],
      "name": "NoInlineSecrets",
      "type": "error"
    },
    {
      "inputs": [],
      "name": "OnlyRouterCanFulfill",
      "type": "error"
    },
    {
      "inputs": [
        {
          "internalType": "bytes32",
          "name": "requestId",
          "type": "bytes32"
        }
      ],
      "name": "UnexpectedRequestID",
      "type": "error"
    },
    {
      "anonymous": false,
      "inputs": [
        {
          "indexed": true,
          "internalType": "address",
          "name": "from",
          "type": "address"
        },
        {
          "indexed": true,
          "internalType": "address",
          "name": "to",
          "type": "address"
        }
      ],
      "name": "OwnershipTransferRequested",
      "type": "event"
    },
    {
      "anonymous": false,
      "inputs": [
        {
          "indexed": true,
          "internalType": "address",
          "name": "from",
          "type": "address"
        },
        {
          "indexed": true,
          "internalType": "address",
          "name": "to",
          "type": "address"
        }
      ],
      "name": "OwnershipTransferred",
      "type": "event"
    },
    {
      "anonymous": false,
      "inputs": [
        {
          "indexed": true,
          "internalType": "bytes32",
          "name": "id",
          "type": "bytes32"
        }
      ],
      "name": "RequestFulfilled",
      "type": "event"
    },
    {
      "anonymous": false,
      "inputs": [
        {
          "indexed": true,
          "internalType": "bytes32",
          "name": "id",
          "type": "bytes32"
        }
      ],
      "name": "RequestSent",
      "type": "event"
    },
    {
      "anonymous": false,
      "inputs": [
        {
          "indexed": true,
          "internalType": "bytes32",
          "name": "requestId",
          "type": "bytes32"
        },
        {
          "indexed": false,
          "internalType": "string",
          "name": "character",
          "type": "string"
        },
        {
          "indexed": false,
          "internalType": "bytes",
          "name": "response",
          "type": "bytes"
        },
        {
          "indexed": false,
          "internalType": "bytes",
          "name": "err",
          "type": "bytes"
        }
      ],
      "name": "Response",
      "type": "event"
    },
    {
      "inputs": [],
      "name": "acceptOwnership",
      "outputs": [],
      "stateMutability": "nonpayable",
      "type": "function"
    },
    {
      "inputs": [],
      "name": "character",
      "outputs": [
        {
          "internalType": "string",
          "name": "",
          "type": "string"
        }
      ],
      "stateMutability": "view",
      "type": "function"
    },
    {
      "inputs": [
        {
          "internalType": "bytes32",
          "name": "requestId",
          "type": "bytes32"
        },
        {
          "internalType": "bytes",
          "name": "response",
          "type": "bytes"
        },
        {
          "internalType": "bytes",
          "name": "err",
          "type": "bytes"
        }
      ],
      "name": "handleOracleFulfillment",
      "outputs": [],
      "stateMutability": "nonpayable",
      "type": "function"
    },
    {
      "inputs": [],
      "name": "owner",
      "outputs": [
        {
          "internalType": "address",
          "name": "",
          "type": "address"
        }
      ],
      "stateMutability": "view",
      "type": "function"
    },
    {
      "inputs": [],
      "name": "s_lastError",
      "outputs": [
        {
          "internalType": "bytes",
          "name": "",
          "type": "bytes"
        }
      ],
      "stateMutability": "view",
      "type": "function"
    },
    {
      "inputs": [],
      "name": "s_lastRequestId",
      "outputs": [
        {
          "internalType": "bytes32",
          "name": "",
          "type": "bytes32"
        }
      ],
      "stateMutability": "view",
      "type": "function"
    },
    {
      "inputs": [],
      "name": "s_lastResponse",
      "outputs": [
        {
          "internalType": "bytes",
          "name": "",
          "type": "bytes"
        }
      ],
      "stateMutability": "view",
      "type": "function"
    },
    {
      "inputs": [
        {
          "internalType": "uint64",
          "name": "subscriptionId",
          "type": "uint64"
        },
        {
          "internalType": "string[]",
          "name": "args",
          "type": "string[]"
        }
      ],
      "name": "sendRequest",
      "outputs": [
        {
          "internalType": "bytes32",
          "name": "requestId",
          "type": "bytes32"
        }
      ],
      "stateMutability": "nonpayable",
      "type": "function"
    },
    {
      "inputs": [
        {
          "internalType": "address",
          "name": "to",
          "type": "address"
        }
      ],
      "name": "transferOwnership",
      "outputs": [],
      "stateMutability": "nonpayable",
      "type": "function"
    }
  ],
  "transactionHash": "0x56f306cc194506181bc719a9c7962f449eff9bde6b173552ebed7044aaa61e0f",
  "args": [],
  "numDeployments": 1,
  "solcInputHash": "fd551afa334e4458ec7025019b43eca6",
  "bytecode": "0x600580546001600160a01b03191673b83e47c2bc239b3bf370bc41e1459a34b41238d01790556101e060405261010560a0818152906200197e60c0396006906200004a908262000281565b506007805463ffffffff1916620493e01790557f66756e2d657468657265756d2d7365706f6c69612d31000000000000000000006008553480156200008e57600080fd5b506005546001600160a01b03166080523380600081620000f55760405162461bcd60e51b815260206004820152601860248201527f43616e6e6f7420736574206f776e657220746f207a65726f000000000000000060448201526064015b60405180910390fd5b600080546001600160a01b0319166001600160a01b03848116919091179091558116156200012857620001288162000131565b5050506200034d565b336001600160a01b038216036200018b5760405162461bcd60e51b815260206004820152601760248201527f43616e6e6f74207472616e7366657220746f2073656c660000000000000000006044820152606401620000ec565b600180546001600160a01b0319166001600160a01b0383811691821790925560008054604051929316917fed8889f560326eb138920d842192f0eb3dd22b4f139c87a2c57538e05bae12789190a350565b634e487b7160e01b600052604160045260246000fd5b600181811c908216806200020757607f821691505b6020821081036200022857634e487b7160e01b600052602260045260246000fd5b50919050565b601f8211156200027c57600081815260208120601f850160051c81016020861015620002575750805b601f850160051c820191505b81811015620002785782815560010162000263565b5050505b505050565b81516001600160401b038111156200029d576200029d620001dc565b620002b581620002ae8454620001f2565b846200022e565b602080601f831160018114620002ed5760008415620002d45750858301515b600019600386901b1c1916600185901b17855562000278565b600085815260208120601f198616915b828110156200031e57888601518255948401946001909101908401620002fd565b50858210156200033d5787850151600019600388901b60f8161c191681555b5050505050600190811b01905550565b60805161160e62000370600039600081816101460152610857015261160e6000f3fe608060405234801561001057600080fd5b50600436106100935760003560e01c80634d2e03a0116100665780634d2e03a0146100f457806379ba5097146100fc5780638da5cb5b14610104578063b1e217491461011f578063f2fde38b1461012857600080fd5b80630ca76175146100985780633944ea3a146100ad57806348a7d26d146100cb5780634b0795a8146100ec575b600080fd5b6100ab6100a6366004610fb2565b61013b565b005b6100b56101bf565b6040516100c29190611064565b60405180910390f35b6100de6100d9366004611077565b61024d565b6040519081526020016100c2565b6100b561037d565b6100b561038a565b6100ab610397565b6000546040516001600160a01b0390911681526020016100c2565b6100de60025481565b6100ab610136366004611105565b610446565b336001600160a01b037f000000000000000000000000000000000000000000000000000000000000000016146101845760405163c6829f8360e01b815260040160405180910390fd5b61018f83838361045a565b60405183907f85e1543bf2f84fe80c6badbce3648c8539ad1df4d2b3d822938ca0538be727e690600090a2505050565b600380546101cc9061112e565b80601f01602080910402602001604051908101604052809291908181526020018280546101f89061112e565b80156102455780601f1061021a57610100808354040283529160200191610245565b820191906000526020600020905b81548152906001019060200180831161022857829003601f168201915b505050505081565b60006102576104ea565b6102986040805160e0810190915280600081526020016000815260200160008152602001606081526020016060815260200160608152602001606081525090565b610335600680546102a89061112e565b80601f01602080910402602001604051908101604052809291908181526020018280546102d49061112e565b80156103215780601f106102f657610100808354040283529160200191610321565b820191906000526020600020905b81548152906001019060200180831161030457829003601f168201915b50505050508261053f90919063ffffffff16565b821561034f5761034f6103488486611168565b8290610550565b61036f61035b8261057a565b600754600854889163ffffffff1690610852565b600281905595945050505050565b600480546101cc9061112e565b600980546101cc9061112e565b6001546001600160a01b031633146103ef5760405162461bcd60e51b815260206004820152601660248201527526bab9ba10313290383937b837b9b2b21037bbb732b960511b60448201526064015b60405180910390fd5b60008054336001600160a01b0319808316821784556001805490911690556040516001600160a01b0390921692909183917f8be0079c531659141344cd1fd0a4f28419497f9722a3daafe3b4186f6b6457e091a350565b61044e6104ea565b61045781610924565b50565b826002541461047f5760405163d068bf5b60e01b8152600481018490526024016103e6565b600361048b838261124d565b506009610498838261124d565b5060046104a5828261124d565b50827f160ed0aaffbef6885155188b91459cb5a97d5daadccf7561d8c46deea6641b506009600360046040516104dd93929190611389565b60405180910390a2505050565b6000546001600160a01b0316331461053d5760405162461bcd60e51b815260206004820152601660248201527527b7363c9031b0b63630b1363290313c9037bbb732b960511b60448201526064016103e6565b565b61054c82600080846109cd565b5050565b80516000036105725760405163fe936cb760e01b815260040160405180910390fd5b60a090910152565b60606000610589610100610a4b565b90506105c26040518060400160405280600c81526020016b31b7b232a637b1b0ba34b7b760a11b81525082610a6c90919063ffffffff16565b82516105e09060028111156105d9576105d96113cc565b8290610a8a565b6040805180820190915260088152676c616e677561676560c01b602082015261060a908290610a6c565b60408301516106219080156105d9576105d96113cc565b604080518082019091526006815265736f7572636560d01b6020820152610649908290610a6c565b6060830151610659908290610a6c565b60a083015151156106ed576040805180820190915260048152636172677360e01b602082015261068a908290610a6c565b61069381610ac3565b60005b8360a00151518110156106e3576106d38460a0015182815181106106bc576106bc6113e2565b602002602001015183610a6c90919063ffffffff16565b6106dc8161140e565b9050610696565b506106ed81610ae7565b608083015151156107b157600083602001516002811115610710576107106113cc565b0361072e5760405163a80d31f760e01b815260040160405180910390fd5b60408051808201909152600f81526e39b2b1b932ba39a637b1b0ba34b7b760891b602082015261075f908290610a6c565b610778836020015160028111156105d9576105d96113cc565b6040805180820190915260078152667365637265747360c81b60208201526107a1908290610a6c565b60808301516107b1908290610b05565b60c0830151511561084a5760408051808201909152600981526862797465734172677360b81b60208201526107e7908290610a6c565b6107f081610ac3565b60005b8360c0015151811015610840576108308460c001518281518110610819576108196113e2565b602002602001015183610b0590919063ffffffff16565b6108398161140e565b90506107f3565b5061084a81610ae7565b515192915050565b6000807f00000000000000000000000000000000000000000000000000000000000000006001600160a01b031663461d27628688600188886040518663ffffffff1660e01b81526004016108aa959493929190611427565b6020604051808303816000875af11580156108c9573d6000803e3d6000fd5b505050506040513d601f19601f820116820180604052508101906108ed9190611470565b60405190915081907f1131472297a800fee664d1d89cfa8f7676ff07189ecc53f80bbb5f4969099db890600090a295945050505050565b336001600160a01b0382160361097c5760405162461bcd60e51b815260206004820152601760248201527f43616e6e6f74207472616e7366657220746f2073656c6600000000000000000060448201526064016103e6565b600180546001600160a01b0319166001600160a01b0383811691821790925560008054604051929316917fed8889f560326eb138920d842192f0eb3dd22b4f139c87a2c57538e05bae12789190a350565b80516000036109ef576040516322ce3edd60e01b815260040160405180910390fd5b83836002811115610a0257610a026113cc565b90816002811115610a1557610a156113cc565b90525060408401828015610a2b57610a2b6113cc565b90818015610a3b57610a3b6113cc565b9052506060909301929092525050565b610a53610ec0565b8051610a5f9083610b12565b5060006020820152919050565b610a798260038351610b8c565b8151610a859082610cab565b505050565b8151610a979060c2610cd3565b5061054c8282604051602001610aaf91815260200190565b604051602081830303815290604052610b05565b610ace816004610d3c565b600181602001818151610ae19190611489565b90525050565b610af2816007610d3c565b600181602001818151610ae1919061149c565b610a798260028351610b8c565b604080518082019091526060815260006020820152610b326020836114af565b15610b5a57610b426020836114af565b610b4d90602061149c565b610b579083611489565b91505b602080840183905260405180855260008152908184010181811015610b7e57600080fd5b604052508290505b92915050565b6017816001600160401b031611610bb8578251610bb29060e0600585901b168317610cd3565b50505050565b60ff816001600160401b031611610bf8578251610be0906018611fe0600586901b1617610cd3565b508251610bb2906001600160401b0383166001610d53565b61ffff816001600160401b031611610c39578251610c21906019611fe0600586901b1617610cd3565b508251610bb2906001600160401b0383166002610d53565b63ffffffff816001600160401b031611610c7c578251610c6490601a611fe0600586901b1617610cd3565b508251610bb2906001600160401b0383166004610d53565b8251610c9390601b611fe0600586901b1617610cd3565b508251610bb2906001600160401b0383166008610d53565b604080518082019091526060815260006020820152610ccc83838451610dd8565b9392505050565b6040805180820190915260608152600060208201528251516000610cf8826001611489565b905084602001518210610d1957610d1985610d148360026114d1565b610ea9565b8451602083820101858153508051821115610d32578181525b5093949350505050565b8151610a8590601f611fe0600585901b1617610cd3565b6040805180820190915260608152600060208201528351516000610d778285611489565b90508560200151811115610d9457610d9486610d148360026114d1565b60006001610da4866101006115cc565b610dae919061149c565b90508651828101878319825116178152508051831115610dcc578281525b50959695505050505050565b6040805180820190915260608152600060208201528251821115610dfb57600080fd5b8351516000610e0a8483611489565b90508560200151811115610e2757610e2786610d148360026114d1565b855180518382016020019160009180851115610e41578482525b505050602086015b60208610610e815780518252610e60602083611489565b9150610e6d602082611489565b9050610e7a60208761149c565b9550610e49565b51815160001960208890036101000a0190811690199190911617905250849150509392505050565b8151610eb58383610b12565b50610bb28382610cab565b6040518060400160405280610ee8604051806040016040528060608152602001600081525090565b8152602001600081525090565b634e487b7160e01b600052604160045260246000fd5b604051601f8201601f191681016001600160401b0381118282101715610f3357610f33610ef5565b604052919050565b60006001600160401b03831115610f5457610f54610ef5565b610f67601f8401601f1916602001610f0b565b9050828152838383011115610f7b57600080fd5b828260208301376000602084830101529392505050565b600082601f830112610fa357600080fd5b610ccc83833560208501610f3b565b600080600060608486031215610fc757600080fd5b8335925060208401356001600160401b0380821115610fe557600080fd5b610ff187838801610f92565b9350604086013591508082111561100757600080fd5b5061101486828701610f92565b9150509250925092565b6000815180845260005b8181101561104457602081850181015186830182015201611028565b506000602082860101526020601f19601f83011685010191505092915050565b602081526000610ccc602083018461101e565b60008060006040848603121561108c57600080fd5b83356001600160401b0380821682146110a457600080fd5b909350602085013590808211156110ba57600080fd5b818601915086601f8301126110ce57600080fd5b8135818111156110dd57600080fd5b8760208260051b85010111156110f257600080fd5b6020830194508093505050509250925092565b60006020828403121561111757600080fd5b81356001600160a01b0381168114610ccc57600080fd5b600181811c9082168061114257607f821691505b60208210810361116257634e487b7160e01b600052602260045260246000fd5b50919050565b60006001600160401b038084111561118257611182610ef5565b8360051b6020611193818301610f0b565b8681529185019181810190368411156111ab57600080fd5b865b848110156111f3578035868111156111c55760008081fd5b880136601f8201126111d75760008081fd5b6111e5368235878401610f3b565b8452509183019183016111ad565b50979650505050505050565b601f821115610a8557600081815260208120601f850160051c810160208610156112265750805b601f850160051c820191505b8181101561124557828155600101611232565b505050505050565b81516001600160401b0381111561126657611266610ef5565b61127a81611274845461112e565b846111ff565b602080601f8311600181146112af57600084156112975750858301515b600019600386901b1c1916600185901b178555611245565b600085815260208120601f198616915b828110156112de578886015182559484019460019091019084016112bf565b50858210156112fc5787850151600019600388901b60f8161c191681555b5050505050600190811b01905550565b600081546113198161112e565b80855260206001838116801561133657600181146113505761137e565b60ff1985168884015283151560051b88018301955061137e565b866000528260002060005b858110156113765781548a820186015290830190840161135b565b890184019650505b505050505092915050565b60608152600061139c606083018661130c565b82810360208401526113ae818661130c565b905082810360408401526113c2818561130c565b9695505050505050565b634e487b7160e01b600052602160045260246000fd5b634e487b7160e01b600052603260045260246000fd5b634e487b7160e01b600052601160045260246000fd5b600060018201611420576114206113f8565b5060010190565b6001600160401b038616815260a06020820152600061144960a083018761101e565b61ffff9590951660408301525063ffffffff92909216606083015260809091015292915050565b60006020828403121561148257600080fd5b5051919050565b80820180821115610b8657610b866113f8565b81810381811115610b8657610b866113f8565b6000826114cc57634e487b7160e01b600052601260045260246000fd5b500690565b8082028115828204841417610b8657610b866113f8565b600181815b80851115611523578160001904821115611509576115096113f8565b8085161561151657918102915b93841c93908002906114ed565b509250929050565b60008261153a57506001610b86565b8161154757506000610b86565b816001811461155d576002811461156757611583565b6001915050610b86565b60ff841115611578576115786113f8565b50506001821b610b86565b5060208310610133831016604e8410600b84101617156115a6575081810a610b86565b6115b083836114e8565b80600019048211156115c4576115c46113f8565b029392505050565b6000610ccc838361152b56fea264697066735822122093208dd8bb0164715f7dc8d2f94901d008d01475b6b701e6a75dc1d58dd4cebe64736f6c63430008130033636f6e7374206368617261637465724964203d20617267735b305d3b636f6e737420617069526573706f6e7365203d2061776169742046756e6374696f6e732e6d616b654874747052657175657374287b75726c3a206068747470733a2f2f73776170692e696e666f2f6170692f70656f706c652f247b63686172616374657249647d2f607d293b69662028617069526573706f6e73652e6572726f7229207b7468726f77204572726f72282752657175657374206661696c656427293b7d636f6e7374207b2064617461207d203d20617069526573706f6e73653b72657475726e2046756e6374696f6e732e656e636f6465537472696e6728646174612e6e616d65293b",
  "devdoc": {
    "details": "This contract uses hardcoded values and should not be used in production.",
    "kind": "dev",
    "methods": {
      "handleOracleFulfillment(bytes32,bytes,bytes)": {
        "details": "Either response or error parameter will be set, but never both.",
        "params": {
          "err": "Aggregated error either from the request's source code or from the execution pipeline.",
          "requestId": "The requestId returned by FunctionsClient.sendRequest().",
          "response": "Aggregated response from the request's source code."
        }
      },
      "sendRequest(uint64,string[])": {
        "params": {
          "args": "The arguments to pass to the HTTP request",
          "subscriptionId": "The ID for the Chainlink subscription"
        },
        "returns": {
          "requestId": "The ID of the request"
        }
      }
    },
    "title": "GettingStartedFunctionsConsumer",
    "version": 1
  },
  "userdoc": {
    "kind": "user",
    "methods": {
      "acceptOwnership()": {
        "notice": "Allows an ownership transfer to be completed by the recipient."
      },
      "constructor": {
        "notice": "Initializes the contract with the Chainlink router address and sets the contract owner"
      },
      "handleOracleFulfillment(bytes32,bytes,bytes)": {
        "notice": "Chainlink Functions response handler called by the Functions Router during fullilment from the designated transmitter node in an OCR round."
      },
      "owner()": {
        "notice": "Get the current owner"
      },
      "sendRequest(uint64,string[])": {
        "notice": "Sends an HTTP request for character information"
      },
      "transferOwnership(address)": {
        "notice": "Allows an owner to begin transferring ownership to a new address."
      }
    },
    "notice": "This is an example contract to show how to make HTTP requests using Chainlink",
    "version": 1
  },
  "storageLayout": {
    "storage": [
      {
        "astId": 816,
        "contract": "contracts/samples/GettingStartedFunctionsConsumer.sol:GettingStartedFunctionsConsumer",
        "label": "s_owner",
        "offset": 0,
        "slot": "0",
        "type": "t_address"
      },
      {
        "astId": 818,
        "contract": "contracts/samples/GettingStartedFunctionsConsumer.sol:GettingStartedFunctionsConsumer",
        "label": "s_pendingOwner",
        "offset": 0,
        "slot": "1",
        "type": "t_address"
      },
      {
        "astId": 2285,
        "contract": "contracts/samples/GettingStartedFunctionsConsumer.sol:GettingStartedFunctionsConsumer",
        "label": "s_lastRequestId",
        "offset": 0,
        "slot": "2",
        "type": "t_bytes32"
      },
      {
        "astId": 2287,
        "contract": "contracts/samples/GettingStartedFunctionsConsumer.sol:GettingStartedFunctionsConsumer",
        "label": "s_lastResponse",
        "offset": 0,
        "slot": "3",
        "type": "t_bytes_storage"
      },
      {
        "astId": 2289,
        "contract": "contracts/samples/GettingStartedFunctionsConsumer.sol:GettingStartedFunctionsConsumer",
        "label": "s_lastError",
        "offset": 0,
        "slot": "4",
        "type": "t_bytes_storage"
      },
      {
        "astId": 2306,
        "contract": "contracts/samples/GettingStartedFunctionsConsumer.sol:GettingStartedFunctionsConsumer",
        "label": "router",
        "offset": 0,
        "slot": "5",
        "type": "t_address"
      },
      {
        "astId": 2309,
        "contract": "contracts/samples/GettingStartedFunctionsConsumer.sol:GettingStartedFunctionsConsumer",
        "label": "source",
        "offset": 0,
        "slot": "6",
        "type": "t_string_storage"
      },
      {
        "astId": 2312,
        "contract": "contracts/samples/GettingStartedFunctionsConsumer.sol:GettingStartedFunctionsConsumer",
        "label": "gasLimit",
        "offset": 0,
        "slot": "7",
        "type": "t_uint32"
      },
      {
        "astId": 2315,
        "contract": "contracts/samples/GettingStartedFunctionsConsumer.sol:GettingStartedFunctionsConsumer",
        "label": "donID",
        "offset": 0,
        "slot": "8",
        "type": "t_bytes32"
      },
      {
        "astId": 2317,
        "contract": "contracts/samples/GettingStartedFunctionsConsumer.sol:GettingStartedFunctionsConsumer",
        "label": "character",
        "offset": 0,
        "slot": "9",
        "type": "t_string_storage"
      }
    ],
    "types": {
      "t_address": {
        "encoding": "inplace",
        "label": "address",
        "numberOfBytes": "20"
      },
      "t_bytes32": {
        "encoding": "inplace",
        "label": "bytes32",
        "numberOfBytes": "32"
      },
      "t_bytes_storage": {
        "encoding": "bytes",
        "label": "bytes",
        "numberOfBytes": "32"
      },
      "t_string_storage": {
        "encoding": "bytes",
        "label": "string",
        "numberOfBytes": "32"
      },
      "t_uint32": {
        "encoding": "inplace",
        "label": "uint32",
        "numberOfBytes": "4"
      }
    }
  }
}